{
  "contractName": "Election",
  "abi": [
    {
      "constant": true,
      "inputs": [],
      "name": "count",
      "outputs": [
        {
          "name": "",
          "type": "uint256"
        }
      ],
      "payable": false,
      "stateMutability": "view",
      "type": "function",
      "signature": "0x06661abd"
    },
    {
      "constant": true,
      "inputs": [
        {
          "name": "",
          "type": "uint256"
        }
      ],
      "name": "teachers",
      "outputs": [
        {
          "name": "id",
          "type": "uint256"
        },
        {
          "name": "fullName",
          "type": "string"
        },
        {
          "name": "difficultyRating",
          "type": "uint256"
        }
      ],
      "payable": false,
      "stateMutability": "view",
      "type": "function",
      "signature": "0x34ac0b40"
    },
    {
      "constant": true,
      "inputs": [],
      "name": "teacherCount",
      "outputs": [
        {
          "name": "",
          "type": "uint256"
        }
      ],
      "payable": false,
      "stateMutability": "view",
      "type": "function",
      "signature": "0x46be3136"
    },
    {
      "constant": true,
      "inputs": [
        {
          "name": "",
          "type": "uint256"
        }
      ],
      "name": "faculty",
      "outputs": [
        {
          "name": "id",
          "type": "uint256"
        },
        {
          "name": "firstName",
          "type": "string"
        },
        {
          "name": "lastName",
          "type": "string"
        },
        {
          "name": "difficulity",
          "type": "uint256"
        }
      ],
      "payable": false,
      "stateMutability": "view",
      "type": "function",
      "signature": "0x911f5b8f"
    },
    {
      "constant": true,
      "inputs": [
        {
          "name": "",
          "type": "uint256"
        }
      ],
      "name": "reviews",
      "outputs": [
        {
          "name": "id",
          "type": "uint256"
        }
      ],
      "payable": false,
      "stateMutability": "view",
      "type": "function",
      "signature": "0xe83ddcea"
    },
    {
      "inputs": [],
      "payable": false,
      "stateMutability": "nonpayable",
      "type": "constructor",
      "signature": "constructor"
    },
    {
      "constant": false,
      "inputs": [
        {
          "name": "_id",
          "type": "uint256"
        },
        {
          "name": "_difficulity",
          "type": "uint256"
        },
        {
          "name": "_review",
          "type": "string"
        }
      ],
      "name": "writeComment",
      "outputs": [],
      "payable": true,
      "stateMutability": "payable",
      "type": "function",
      "signature": "0xf3515a0b"
    },
    {
      "constant": false,
      "inputs": [
        {
          "name": "_firstName",
          "type": "string"
        },
        {
          "name": "_lastName",
          "type": "string"
        }
      ],
      "name": "addProf",
      "outputs": [],
      "payable": false,
      "stateMutability": "nonpayable",
      "type": "function",
      "signature": "0xf516511f"
    }
  ],
  "bytecode": "0x60806040526001600260146101000a81548160ff0219169083151502179055503480156200002c57600080fd5b506200007c6040805190810160405280600881526020017f4a6f686e204173680000000000000000000000000000000000000000000000008152506200020d640100000000026401000000009004565b620000cb6040805190810160405280600a81526020017f4a61636b2053746f6e65000000000000000000000000000000000000000000008152506200020d640100000000026401000000009004565b6200011a6040805190810160405280600e81526020017f4a6f686e204170706c65736565640000000000000000000000000000000000008152506200020d640100000000026401000000009004565b620001696040805190810160405280600981526020017f4a656e6e79204c656500000000000000000000000000000000000000000000008152506200020d640100000000026401000000009004565b620001b86040805190810160405280600b81526020017f4a6572727920536d6974680000000000000000000000000000000000000000008152506200020d640100000000026401000000009004565b620002076040805190810160405280600d81526020017f4a656666204265726b656c6579000000000000000000000000000000000000008152506200020d640100000000026401000000009004565b62000339565b6000808154809291906001019190505550606060405190810160405280600054815260200182815260200160008152506001600080548152602001908152602001600020600082015181600001556020820151816001019080519060200190620002799291906200028a565b506040820151816002015590505050565b828054600181600116156101000203166002900490600052602060002090601f016020900481019282601f10620002cd57805160ff1916838001178555620002fe565b82800160010185558215620002fe579182015b82811115620002fd578251825591602001919060010190620002e0565b5b5090506200030d919062000311565b5090565b6200033691905b808211156200033257600081600090555060010162000318565b5090565b90565b610a0580620003496000396000f300608060405260043610610083576000357c0100000000000000000000000000000000000000000000000000000000900463ffffffff16806306661abd1461008857806334ac0b40146100b357806346be313614610167578063911f5b8f14610192578063e83ddcea146102b2578063f3515a0b146102f3578063f516511f14610363575b600080fd5b34801561009457600080fd5b5061009d610412565b6040518082815260200191505060405180910390f35b3480156100bf57600080fd5b506100de60048036038101908080359060200190929190505050610418565b6040518084815260200180602001838152602001828103825284818151815260200191508051906020019080838360005b8381101561012a57808201518184015260208101905061010f565b50505050905090810190601f1680156101575780820380516001836020036101000a031916815260200191505b5094505050505060405180910390f35b34801561017357600080fd5b5061017c6104da565b6040518082815260200191505060405180910390f35b34801561019e57600080fd5b506101bd600480360381019080803590602001909291905050506104e0565b604051808581526020018060200180602001848152602001838103835286818151815260200191508051906020019080838360005b8381101561020d5780820151818401526020810190506101f2565b50505050905090810190601f16801561023a5780820380516001836020036101000a031916815260200191505b50838103825285818151815260200191508051906020019080838360005b83811015610273578082015181840152602081019050610258565b50505050905090810190601f1680156102a05780820380516001836020036101000a031916815260200191505b50965050505050505060405180910390f35b3480156102be57600080fd5b506102dd60048036038101908080359060200190929190505050610640565b6040518082815260200191505060405180910390f35b6103616004803603810190808035906020019092919080359060200190929190803590602001908201803590602001908080601f016020809104026020016040519081016040528093929190818152602001838380828437820191505050505050919291929050505061065e565b005b34801561036f57600080fd5b50610410600480360381019080803590602001908201803590602001908080601f0160208091040260200160405190810160405280939291908181526020018383808284378201915050505050509192919290803590602001908201803590602001908080601f01602080910402602001604051908101604052809392919081815260200183838082843782019150505050505091929192905050506107ad565b005b60035481565b6001602052806000526040600020600091509050806000015490806001018054600181600116156101000203166002900480601f0160208091040260200160405190810160405280929190818152602001828054600181600116156101000203166002900480156104ca5780601f1061049f576101008083540402835291602001916104ca565b820191906000526020600020905b8154815290600101906020018083116104ad57829003601f168201915b5050505050908060020154905083565b60005481565b6004602052806000526040600020600091509050806000015490806001018054600181600116156101000203166002900480601f0160208091040260200160405190810160405280929190818152602001828054600181600116156101000203166002900480156105925780601f1061056757610100808354040283529160200191610592565b820191906000526020600020905b81548152906001019060200180831161057557829003601f168201915b505050505090806002018054600181600116156101000203166002900480601f0160208091040260200160405190810160405280929190818152602001828054600181600116156101000203166002900480156106305780601f1061060557610100808354040283529160200191610630565b820191906000526020600020905b81548152906001019060200180831161061357829003601f168201915b5050505050908060030154905084565b60056020528060005260406000206000915090508060000154905081565b600260009054906101000a900473ffffffffffffffffffffffffffffffffffffffff1673ffffffffffffffffffffffffffffffffffffffff163373ffffffffffffffffffffffffffffffffffffffff16141515156106bb57600080fd5b670de0b6b3a7640000341415156106d157600080fd5b8160046000858152602001908152602001600020600301819055506005600084815260200190815260200160002060010181908060018154018082558091505090600182039060005260206000200160009091929091909150908051906020019061073d9291906108b4565b5050600260009054906101000a900473ffffffffffffffffffffffffffffffffffffffff1673ffffffffffffffffffffffffffffffffffffffff166108fc349081150290604051600060405180830381858888f193505050501580156107a7573d6000803e3d6000fd5b50505050565b600260009054906101000a900473ffffffffffffffffffffffffffffffffffffffff1673ffffffffffffffffffffffffffffffffffffffff163373ffffffffffffffffffffffffffffffffffffffff1614151561080957600080fd5b6108116108a0565b60806040519081016040528060035481526020018381526020018281526020016000815250600460006003548152602001908152602001600020600082015181600001556020820151816001019080519060200190610871929190610934565b50604082015181600201908051906020019061088e929190610934565b50606082015181600301559050505050565b600360008154809291906001019190505550565b828054600181600116156101000203166002900490600052602060002090601f016020900481019282601f106108f557805160ff1916838001178555610923565b82800160010185558215610923579182015b82811115610922578251825591602001919060010190610907565b5b50905061093091906109b4565b5090565b828054600181600116156101000203166002900490600052602060002090601f016020900481019282601f1061097557805160ff19168380011785556109a3565b828001600101855582156109a3579182015b828111156109a2578251825591602001919060010190610987565b5b5090506109b091906109b4565b5090565b6109d691905b808211156109d25760008160009055506001016109ba565b5090565b905600a165627a7a7230582040cb97de0757edea308ceee79260d64cd1370554ccd46cec1d35c951e2920f4d0029",
  "source": "pragma solidity 0.4.25;\n\ncontract Election {\n    // Model a Candidate\n    // struct Candidate {\n    //     uint id;\n    //     string name;\n    //     uint voteCount;\n    // }\n\n    // Alpha Code\n    struct Teacher{\n        uint id;\n        string fullName;\n        uint difficultyRating;\n    }\n    uint public teacherCount;\n    mapping(uint => Teacher) public teachers;\n\n    function addTeacher (string fullName) private {\n        teacherCount ++;\n        teachers[teacherCount] = Teacher(teacherCount, fullName, 0);\n    }\n\n    constructor () public {\n        addTeacher(\"John Ash\");\n        addTeacher(\"Jack Stone\");\n        addTeacher(\"John Appleseed\");\n        addTeacher(\"Jenny Lee\");\n        addTeacher(\"Jerry Smith\");\n        addTeacher(\"Jeff Berkeley\");\n\n    }\n    \n    // Alpha Code\n\n    // Store accounts that have voted\n    // mapping(address => bool) public voters;\n    // // Store Candidates\n    // // Fetch Candidate\n    // mapping(uint => Candidate) public candidates;\n    // // Store Candidates Count\n    // uint public candidatesCount;\n\n    // voted event\n    // event votedEvent (\n    //     uint indexed _candidateId\n    // );\n\n    address owner;\n    bool genesis = true;\n    uint256 public count;\n    mapping(uint => Professor) public faculty;\n    mapping(uint => Comment) public reviews;\n    \n    struct Professor{\n        uint id;\n        string firstName;\n        string lastName;\n        uint difficulity;\n    }\n    \n    struct Comment{\n        uint id;\n        string[] comments;\n    }\n    \nfunction writeComment (uint _id, uint _difficulity, string memory _review) \n        public payable onlyStudent{\n            require(msg.value==1 ether);\n        //update faculty difficulity and actual comment\n        faculty[_id].difficulity = _difficulity;\n        reviews[_id].comments.push(string(_review));\n        //send ether to the school\n        owner.transfer(msg.value);\n    }\n\n//////////MODIFIERS BELOW///////////////\n    modifier onlyOwner(){\n        require (msg.sender == owner);\n        _;\n    }\n    \n    modifier onlyStudent(){\n        require(msg.sender != owner);\n        _;\n    }\n    \n    function addProf(string memory _firstName,string memory _lastName) \n        public onlyOwner{\n        incrementCount();\n        faculty[count] = Professor(count, _firstName, _lastName, 0);\n    }\n    \n    function incrementCount() internal {\n        count ++;\n    }\n\n    // function addCandidate (string _name) private {\n    //     candidatesCount ++;\n    //     candidates[candidatesCount] = Candidate(candidatesCount, _name, 0);\n    // }\n\n    // function vote (uint _candidateId) public {\n    //     // require that they haven't voted before\n    //     require(!voters[msg.sender]);\n\n    //     // require a valid candidate\n    //     require(_candidateId > 0 && _candidateId <= candidatesCount);\n\n    //     // record that voter has voted\n    //     voters[msg.sender] = true;\n\n    //     // update candidate vote Count\n    //     candidates[_candidateId].voteCount ++;\n\n    //     // trigger voted event\n    //     emit votedEvent(_candidateId);\n    // }\n}\n",
  "sourcePath": "C:/Users/brand/Desktop/election-2019_update/contracts/Election.sol",
  "compiler": {
    "name": "solc",
    "version": "0.4.25+commit.59dbf8f1.Emscripten.clang"
  },
  "schemaVersion": "3.0.2",
  "updatedAt": "2019-02-17T17:43:47.989Z",
  "devdoc": {
    "methods": {}
  },
  "userdoc": {
    "methods": {}
  }
}