{
  "contractName": "MyContract",
  "abi": [
    {
      "constant": true,
      "inputs": [],
      "name": "count",
      "outputs": [
        {
          "name": "",
          "type": "uint256"
        }
      ],
      "payable": false,
      "stateMutability": "view",
      "type": "function"
    },
    {
      "constant": true,
      "inputs": [
        {
          "name": "",
          "type": "uint256"
        }
      ],
      "name": "faculty",
      "outputs": [
        {
          "name": "id",
          "type": "uint256"
        },
        {
          "name": "firstName",
          "type": "string"
        },
        {
          "name": "lastName",
          "type": "string"
        },
        {
          "name": "difficulity",
          "type": "uint256"
        }
      ],
      "payable": false,
      "stateMutability": "view",
      "type": "function"
    },
    {
      "constant": true,
      "inputs": [
        {
          "name": "",
          "type": "uint256"
        }
      ],
      "name": "reviews",
      "outputs": [
        {
          "name": "id",
          "type": "uint256"
        }
      ],
      "payable": false,
      "stateMutability": "view",
      "type": "function"
    },
    {
      "inputs": [],
      "payable": true,
      "stateMutability": "payable",
      "type": "constructor"
    },
    {
      "constant": false,
      "inputs": [
        {
          "name": "_id",
          "type": "uint256"
        },
        {
          "name": "_difficulity",
          "type": "uint256"
        },
        {
          "name": "_review",
          "type": "string"
        }
      ],
      "name": "writeComment",
      "outputs": [],
      "payable": true,
      "stateMutability": "payable",
      "type": "function"
    },
    {
      "constant": false,
      "inputs": [
        {
          "name": "_firstName",
          "type": "string"
        },
        {
          "name": "_lastName",
          "type": "string"
        }
      ],
      "name": "addProf",
      "outputs": [],
      "payable": false,
      "stateMutability": "nonpayable",
      "type": "function"
    }
  ],
  "bytecode": "0x60806040526001600060146101000a81548160ff021916908315150217905550600060149054906101000a900460ff16156200009057336000806101000a81548173ffffffffffffffffffffffffffffffffffffffff021916908373ffffffffffffffffffffffffffffffffffffffff16021790555060008060146101000a81548160ff0219169083151502179055505b620001156040805190810160405280600481526020017f4a6f686e000000000000000000000000000000000000000000000000000000008152506040805190810160405280600581526020017f536d697468000000000000000000000000000000000000000000000000000000815250620003b4640100000000026401000000009004565b6200019a6040805190810160405280600581526020017f4a657272790000000000000000000000000000000000000000000000000000008152506040805190810160405280600381526020017f4c65650000000000000000000000000000000000000000000000000000000000815250620003b4640100000000026401000000009004565b6200021f6040805190810160405280600581526020017f53617261680000000000000000000000000000000000000000000000000000008152506040805190810160405280600881526020017f476f6c6462657267000000000000000000000000000000000000000000000000815250620003b4640100000000026401000000009004565b620002a46040805190810160405280600481526020017f4a6f7368000000000000000000000000000000000000000000000000000000008152506040805190810160405280600581526020017f53746f6e65000000000000000000000000000000000000000000000000000000815250620003b4640100000000026401000000009004565b620003296040805190810160405280600481526020017f4a6f686e000000000000000000000000000000000000000000000000000000008152506040805190810160405280600381526020017f446f650000000000000000000000000000000000000000000000000000000000815250620003b4640100000000026401000000009004565b620003ae6040805190810160405280600681526020017f416e6472657700000000000000000000000000000000000000000000000000008152506040805190810160405280600381526020017f4c65650000000000000000000000000000000000000000000000000000000000815250620003b4640100000000026401000000009004565b6200057f565b6000809054906101000a900473ffffffffffffffffffffffffffffffffffffffff1673ffffffffffffffffffffffffffffffffffffffff163373ffffffffffffffffffffffffffffffffffffffff161415156200041057600080fd5b62000429620004bc640100000000026401000000009004565b608060405190810160405280600154815260200183815260200182815260200160008152506002600060015481526020019081526020016000206000820151816000015560208201518160010190805190602001906200048b929190620004d0565b506040820151816002019080519060200190620004aa929190620004d0565b50606082015181600301559050505050565b600160008154809291906001019190505550565b828054600181600116156101000203166002900490600052602060002090601f016020900481019282601f106200051357805160ff191683800117855562000544565b8280016001018555821562000544579182015b828111156200054357825182559160200191906001019062000526565b5b50905062000553919062000557565b5090565b6200057c91905b80821115620005785760008160009055506001016200055e565b5090565b90565b610845806200058f6000396000f30060806040526004361061006d576000357c0100000000000000000000000000000000000000000000000000000000900463ffffffff16806306661abd14610072578063911f5b8f1461009d578063e83ddcea146101bd578063f3515a0b146101fe578063f516511f1461026e575b600080fd5b34801561007e57600080fd5b5061008761031d565b6040518082815260200191505060405180910390f35b3480156100a957600080fd5b506100c860048036038101908080359060200190929190505050610323565b604051808581526020018060200180602001848152602001838103835286818151815260200191508051906020019080838360005b838110156101185780820151818401526020810190506100fd565b50505050905090810190601f1680156101455780820380516001836020036101000a031916815260200191505b50838103825285818151815260200191508051906020019080838360005b8381101561017e578082015181840152602081019050610163565b50505050905090810190601f1680156101ab5780820380516001836020036101000a031916815260200191505b50965050505050505060405180910390f35b3480156101c957600080fd5b506101e860048036038101908080359060200190929190505050610483565b6040518082815260200191505060405180910390f35b61026c6004803603810190808035906020019092919080359060200190929190803590602001908201803590602001908080601f01602080910402602001604051908101604052809392919081815260200183838082843782019150505050505091929192905050506104a1565b005b34801561027a57600080fd5b5061031b600480360381019080803590602001908201803590602001908080601f0160208091040260200160405190810160405280939291908181526020018383808284378201915050505050509192919290803590602001908201803590602001908080601f01602080910402602001604051908101604052809392919081815260200183838082843782019150505050505091929192905050506105ee565b005b60015481565b6002602052806000526040600020600091509050806000015490806001018054600181600116156101000203166002900480601f0160208091040260200160405190810160405280929190818152602001828054600181600116156101000203166002900480156103d55780601f106103aa576101008083540402835291602001916103d5565b820191906000526020600020905b8154815290600101906020018083116103b857829003601f168201915b505050505090806002018054600181600116156101000203166002900480601f0160208091040260200160405190810160405280929190818152602001828054600181600116156101000203166002900480156104735780601f1061044857610100808354040283529160200191610473565b820191906000526020600020905b81548152906001019060200180831161045657829003601f168201915b5050505050908060030154905084565b60036020528060005260406000206000915090508060000154905081565b6000809054906101000a900473ffffffffffffffffffffffffffffffffffffffff1673ffffffffffffffffffffffffffffffffffffffff163373ffffffffffffffffffffffffffffffffffffffff16141515156104fd57600080fd5b670de0b6b3a76400003414151561051357600080fd5b8160026000858152602001908152602001600020600301819055506003600084815260200190815260200160002060010181908060018154018082558091505090600182039060005260206000200160009091929091909150908051906020019061057f9291906106f4565b50506000809054906101000a900473ffffffffffffffffffffffffffffffffffffffff1673ffffffffffffffffffffffffffffffffffffffff166108fc349081150290604051600060405180830381858888f193505050501580156105e8573d6000803e3d6000fd5b50505050565b6000809054906101000a900473ffffffffffffffffffffffffffffffffffffffff1673ffffffffffffffffffffffffffffffffffffffff163373ffffffffffffffffffffffffffffffffffffffff1614151561064957600080fd5b6106516106e0565b608060405190810160405280600154815260200183815260200182815260200160008152506002600060015481526020019081526020016000206000820151816000015560208201518160010190805190602001906106b1929190610774565b5060408201518160020190805190602001906106ce929190610774565b50606082015181600301559050505050565b600160008154809291906001019190505550565b828054600181600116156101000203166002900490600052602060002090601f016020900481019282601f1061073557805160ff1916838001178555610763565b82800160010185558215610763579182015b82811115610762578251825591602001919060010190610747565b5b50905061077091906107f4565b5090565b828054600181600116156101000203166002900490600052602060002090601f016020900481019282601f106107b557805160ff19168380011785556107e3565b828001600101855582156107e3579182015b828111156107e25782518255916020019190600101906107c7565b5b5090506107f091906107f4565b5090565b61081691905b808211156108125760008160009055506001016107fa565b5090565b905600a165627a7a723058202a818c9a19bacd05c00d8c32944126f43a00220fd6d3b96c9cf7ff97a59048d00029",
  "source": "pragma solidity 0.4.25;\r\ncontract MyContract{\r\n    \r\n    address owner;\r\n    bool genesis = true;\r\n    uint256 public count;\r\n    mapping(uint => Professor) public faculty;\r\n    mapping(uint => Comment) public reviews;\r\n    \r\n    struct Professor{\r\n        uint id;\r\n        string firstName;\r\n        string lastName;\r\n        uint difficulity;\r\n    }\r\n    \r\n    struct Comment{\r\n        uint id;\r\n        string[] comments;\r\n    }\r\n    \r\n    /*The school will be the first one to deploy, makes it the sole owner*/\r\n    constructor() public payable {\r\n        if (genesis){\r\n            owner = msg.sender;\r\n            genesis = false;\r\n        }\r\n        addProf(\"John\", \"Smith\");\r\n        addProf(\"Jerry\", \"Lee\");\r\n        addProf(\"Sarah\", \"Goldberg\");\r\n        addProf(\"Josh\", \"Stone\");\r\n        addProf(\"John\", \"Doe\");\r\n        addProf(\"Andrew\", \"Lee\");\r\n\r\n\r\n    }\r\n    \r\n    function writeComment (uint _id, uint _difficulity, string memory _review) \r\n        public payable onlyStudent{\r\n            require(msg.value==1 ether);\r\n        //update faculty difficulity and actual comment\r\n        faculty[_id].difficulity = _difficulity;\r\n        reviews[_id].comments.push(string(_review));\r\n        //send ether to the school\r\n        owner.transfer(msg.value);\r\n    }\r\n    \r\n    //------------MODIFIER, OWNER ACTIONS\r\n    \r\n    modifier onlyOwner(){\r\n        require (msg.sender == owner);\r\n        _;\r\n    }\r\n    \r\n    modifier onlyStudent(){\r\n        require(msg.sender != owner);\r\n        _;\r\n    }\r\n    \r\n    function addProf(string memory _firstName,string memory _lastName) \r\n        public onlyOwner{\r\n        incrementCount();\r\n        faculty[count] = Professor(count, _firstName, _lastName, 0);\r\n    }\r\n    \r\n    function incrementCount() internal {\r\n        count ++;\r\n    }\r\n}",
  "sourcePath": "C:/Users/brand/Desktop/election-2019_update/contracts/MyContract.sol",
  "compiler": {
    "name": "solc",
    "version": "0.4.25+commit.59dbf8f1.Emscripten.clang"
  },
  "schemaVersion": "3.0.2",
  "updatedAt": "2019-02-17T17:34:26.668Z",
  "devdoc": {
    "methods": {}
  },
  "userdoc": {
    "methods": {}
  }
}